:100000000C94A0010C94BD010C94BD010C94BD0195
:100010000C94BD010C94BD010C94BD010C94BD0168
:100020000C94BD010C94BD010C94521C0C94261D23
:100030000C9477170C94BD010C94BD010C94BD0178
:100040000C94BD010C94BD010C94BD010C94BD0138
:100050000C94BD010C94FE170C94BD010C94BD01D1
:100060000C94BD010C94BD010C94BD010C94BD0118
:100070000C94BD010C94BD010C94BD010C94BD0108
:100080000C94BD010C94BD010C94BD010C94BD01F8
:100090000C94BD010C94BD010C94BD010C94BD01E8
:1000A0000C94BD010C94BD010C94BD0101013E00F6
:1000B0000102E30102E10101160103E10103E30092
:1000C000007E017E410042002C4154005500560044
:1000D0005F006000610057005C005D005E00000092
:1000E00059005A005B0058246200000063000000C1
:1000F00001002A002B000100010001000100AA00FC
:100100004A0052004B00A9005000007C4F00000044
:100110004D0051004E000100A80000004C000000FE
:1001200000000000000000002A2B28000000000052
:100130000000000000000000000000290000000096
:100140002C1E3420212224342627252E362D373804
:10015000271E1F202122232425263333362E37380D
:100160001F0405060708090A0B0C0D0E0F101112CB
:10017000131415161718191A1B1C1D2F3130232D97
:10018000350405060708090A0B0C0D0E0F10111295
:10019000131415161718191A1B1C1D2F3130354C46
:1001A000000000000000000000000000000000004F
:1001B000000000000000000000000000000000003F
:1001C000000000007E0F00D4FFFFFFC70000007892
:1001D00010036300610073006500340030003400D8
:1001E0000000140361006C0061006E0030006600C6
:1001F0006F007200640000000403090409023B0060
:10020000020100A0FA090400000103010100092114
:1002100011010001224000070581030800010904C3
:100220000100010300000009211101000122B600B4
:1002300007058203200001120100020000000830BF
:1002400041580001000102000105010902A10185D8
:10025000020901A1000509190129081500250195C8
:1002600008750181020501093009311581257F9545
:10027000027508810609381581257F950175088169
:1002800006050C0A38021581257F9501750881063F
:10029000C0C005010980A101850319012AB7001515
:1002A0000126B700950175108100C0050C0901A158
:1002B00001850419012AA002150126A002950175E5
:1002C000108100C005010906A1018506050719E096
:1002D00029E7150025019508750181020507190018
:1002E00029EF1500250195F0750181020508190116
:1002F0002905950575019102950175039101C005C8
:10030000010906A101050719E029E7150025019556
:1003100008750181029501750881010507190029F9
:10032000FF150026FF0095067508810005081901D4
:100330002905950575019102950175039101C0008C
:1003400011241FBECFEFDAE0DEBFCDBF11E0A0E089
:10035000B1E0E6E9FFE302C005900D92A838B107CD
:10036000D9F722E0A8E8B1E001C01D92AA38B2078F
:10037000E1F70E94D9100C948A1F0C9400009C0194
:10038000FB018281882399F02115FEE73F0721F0C8
:1003900021303E4741F0089560E080EB90E00E94FC
:1003A000A31480E0089560E08CEA90E0F8CF81E04B
:1003B000089508958230C0F46630B0F44430A0F45B
:1003C000E62FF0E096E0899FE00DF11D1124EE0F7D
:1003D000FF1FEE0FFF1FE40FF11DEE0FFF1FE05494
:1003E000FF4F85919491089580E090E008950E94D8
:1003F000DA01089581E008950E94BF0108950895EB
:100400000E94FF010895A5E0B0E0E9E0F2E00C945D
:10041000F61E49835A8330918F0189819A81311167
:1004200019C0662399F0222389F00E940B08182F27
:10043000682F89819A810E94E80769817A81812FDA
:100440000E94600E2596E3E00C94121F0E94F907AB
:10045000182FF3CF0E940B0869817A81F1CFFC013C
:10046000262F408151816281738184810E94030221
:10047000089581E00895CF93DF93EC0160E00E943E
:100480002F02BE010E940002DF91CF9108950E94C9
:10049000940F08950E94970F089508950E94B7063B
:1004A0000E944D022FEF84E39CE021508040904059
:1004B000E1F700C0000008950E944E020E94221839
:1004C00008950E944E020E94331808950F931F93BF
:1004D000CF93DF938C0161E00E942F02EC01B80101
:1004E0000E94FC01811106C080E0DF91CF911F9135
:1004F0000F910895B801CE010E9499158823A1F3A8
:10050000B801CE010E946A13882371F3B801CE01AD
:100510000E940B15882341F3F8018281882361F042
:10052000C330FCE7DF07E9F058F4C115ECE7DE075C
:10053000A9F0C130DC47B9F0C8010E94FA01D5CF5B
:10054000CB358CE7D807A9F0CC35ECE7DE0771F0A6
:10055000CA35DC4789F70E940D0CEECF0E945C0281
:10056000C3CF0E94150C0E946102BECF0E94030CF3
:10057000E3CF0E94110CE0CF0E9454170E94E602C4
:1005800008950E94EA020E945917089508950E9452
:10059000C602089581E008950895CF93DF93D82F80
:1005A0000E94CA02C82F882319F08D2F0E94CC0206
:1005B0008C2FDF91CF9108950895CF93C82F0E947B
:1005C000C7028C2F0E94CD02CF91089580E00E9437
:1005D000DD0208950E94E7150E94DD020895CF9381
:1005E0000E94E715C82F80918A018C1779F0C0937B
:1005F0008A010E94E31760938B0170938C018093B2
:100600008D0190938E018C2F0E94DD02CF91089571
:10061000ABE0B0E0EEE0F3E00C94F71E4F835887B8
:1006200069877A878B8761110E944E0B1E821D821B
:1006300085E0FE013796DE01119601900D928A95B4
:10064000E1F78C819D81892B61F449815A816B810D
:100650007C818D819E810E94770A2B96E2E00C942A
:10066000131F89819A8189238F3F79F3CE010196E7
:100670000E9439028111E9CFF0CFFC018081918184
:100680000E943D080895662329F00E945D110E9492
:10069000301208950E94B711FACFCF93C82F882344
:1006A000C9F08238C9F40E94E71581FD13C089E3BF
:1006B0000E94060B0E946F0B2FEF87EE93E02150F4
:1006C00080409040E1F700C0000089E30E940E0BDB
:1006D0000E946F0BCF9108958338A1F40E94E71513
:1006E00080FDF8CF83E50E94060B0E946F0B2FEF71
:1006F00081EE94E0215080409040E1F700C000007E
:1007000083E5E4CF8438A1F40E94E71582FDE2CFAF
:1007100087E40E94060B0E946F0B2FEF81EE94E09E
:10072000215080409040E1F700C0000087E4CECF28
:100730008CEF8C0F813A90F46C2F80910001909196
:1007400001010E947A16882329F08C2F0E940E0B3B
:100750000E946F0B8C2F0E94060BBACF80E28C0F89
:10076000883048F4C77081E001C0880FCA95EAF765
:100770000E94310BADCFEBE5EC0FE33040F4F0E03D
:10078000EB5BFE4F808190E00E941C16A3CFE8E552
:10079000EC0FE93150F4F0E0EE0FFF1FED5EFE4F7D
:1007A000808191810E94411695CF83E38C0F833124
:1007B00008F090CF61E08C2F0E9443038BCF8823F9
:1007C00009F456C0823879F40E94E71581FF50C0C1
:1007D00089E30E94060B0E946F0B89E30E940E0BB7
:1007E0000E946F0B0895833859F40E94E71580FF2B
:1007F0003FC083E50E94060B0E946F0B83E5EECF9E
:10080000843859F40E94E71582FF32C087E40E94C1
:10081000060B0E946F0B87E4E1CF9CEF980F913A93
:10082000E8F290E2980F983050F4877091E001C0A0
:10083000990F8A95EAF7892F0E94370BD1CF9BE554
:10084000980F933028F490E080E00E941C160895E1
:1008500098E5980F993128F490E080E00E944116C5
:10086000089593E3980F933118F460E00E944303D6
:1008700008951F93CF93DF93182FEB010E944D0330
:10088000209739F4812F0E94DF03DF91CF911F91D0
:1008900008958FE99FE00197F1F700C000002197CC
:1008A000EFCF70E060E0893311F460E570E00E9402
:1008B00039040895882321F00E94310B0E946F0BA8
:1008C0000895882321F00E94370B0E946F0B089532
:1008D000B0E0A0E0EEE6F4E00C94F01E6C01D62F40
:1008E000C72FFC011281F580F2949FE0F9220E944B
:1008F000270BE82E8823B9F0E12E1123A1F08C2FCD
:10090000807F803421F080E28D0F8830D0F080919C
:100910006C0282FF16C082E00E94D20B0E94270B5D
:1009200091E0E82EE926BC2EB2948FE0B822FBE0DD
:10093000FB1508F468C0EB2DF0E0E457F04E0C9482
:10094000E11EE12CF0CF0C2F0F70C07F11F002954B
:10095000007F112399F0002359F080E28D0F883039
:1009600010F0D11107C0802F0E94310B0E946F0B35
:100970008D2F41C0802F0E94410BF8CF8D2F0E94F8
:10098000DF03002309F43FC080E28D0F883010F0B0
:10099000D11104C0802F0E94370B03C0802F0E940A
:1009A000470B0E946F0B2FC00C2F0F70C07FC032FF
:1009B00011F00295007FDD2381F0D13009F468C089
:1009C000112309F472C0FF2009F468C0F601858183
:1009D00080FFCECF8F70858361C080916C0282FDD5
:1009E00033C0112359F0002329F0802F0E94310BCE
:1009F0000E946F0B80E00E944D0305C080E00E94C2
:100A0000DF030111C7CFEB2DE850FF0B349720F423
:100A10000E94E7150E94DD02EE2089F00E94230B60
:100A200080FD0DC0F60112820E941D0B0E94460738
:100A3000C6010E9477060E941D0B0E945607CDB783
:100A4000DEB7E9E00C940C1F112389F0F11006C009
:100A50000E94510B802B0E945A04D5CF21E0F21244
:100A6000F7CF0E94510B802B0E94580BCCCFF11076
:100A700006C00E94650B802F0E946104C4CF31E044
:100A8000F31609F2802F0E9461040E94650BBBCF10
:100A9000112331F085E08F1508F4B5CF802FDBCF1F
:100AA00094E09F1508F4AFCFE6CFFF2021F3D933B0
:100AB00049F4FFEF27EE33E0F15020403040E1F7FA
:100AC00000C000008D2F0E94DF039DCF8C2F8695E4
:100AD0008695837069F0813009F095CF8D2F9C2F1A
:100AE0009370111102C080E090E00E9441168BCFFC
:100AF0008D2F9C2F9370111102C080E090E00E9416
:100B00001C1681CF612F8D2F0E9443037CCF8C2F29
:100B10008370A1F5111177CF4D2F429546954770FF
:100B2000440F440F2D2F2F7030E0042E02C0220FEF
:100B3000331F0A94E2F790E080E0D4FF09C08FE011
:100B400090E002C0880F991F4A95E2F78095909532
:100B5000C695C695C370822B932BC23049F058F4CA
:100B6000C13019F00E9416074ECF0E940D074BCFDF
:100B70000E941F0748CF0E940A0745CF8695112380
:100B800011F08C2F8170882309F43DCF4D2F4295B1
:100B900046954770440F440F2D2F2F7030E0042EE0
:100BA00002C0220F331F0A94E2F790E080E0D4FFE6
:100BB00009C08FE090E002C0880F991F4A95E2F7C4
:100BC00080959095C695C695C370822B932BC230A5
:100BD00049F058F4C13019F00E94810714CF0E94E7
:100BE000780711CF0E948A070ECF0E942E070BCFE5
:100BF000CF70112329F08C2F0E9446078D2F2BCF09
:100C00008D2F0E9461048C2F0E945607FCCED23F8C
:100C100051F160F4D03FB9F0D13F81F0112309F4D4
:100C200049C0F110A5CE8C2F8F7121C0D33F11F197
:100C3000D43FA1F780916C0282FD26C08C2F8F716A
:100C4000112311F314C0112349F084E08F1508F427
:100C5000DACE8C2F8F710E946807D5CE95E09F1554
:100C600008F4D1CEF6CF8C2F8F711111CDCF0E9409
:100C70004607C9CE112329F08C2F8F710E943A07A5
:100C8000C2CE0E943507BFCE112349F0CF718C2F01
:100C90000E94460763E08C2F0E94B40BB4CE81E023
:100CA0000E94D20BE1E0EF1508F0ADCE82E00E9489
:100CB000D20BA9CEF110FBCE8C2F8F71A5CF0F9345
:100CC0001F93CF93DF93EC01688179818A810E9421
:100CD00048088C010E9493070E940907B801CE01C1
:100CE0000E946804DF91CF911F910F910895CF93D7
:100CF000DF93EC018B819C81892B29F0888199817C
:100D000089238F3F51F4DF91CF910895CE010E9446
:100D10005F06CE010E943B02F6CFCE010E94660222
:100D20008111F4CF0E94270B882369F38A818823DD
:100D300051F380916C0282FFE6CF82E00E94D20BD9
:100D4000E2CF90E080E00E941C1690E080E00E94DC
:100D500041160E944E0B0E946F0B0E944C120E9483
:100D6000301208950E94160B0E94A10608950E9459
:100D70003E0B0E94B206089592959F70963091F0B6
:100D800058F4925F9F70923058F4803F19F030F41D
:100D9000883E30F481E008959A5FF4CF843FD1F328
:100DA00080E00895883EB0F3813FD1F7F3CFFC0196
:100DB00083819481892B29F08081918189238F3FC0
:100DC00011F480E00895808191810E943D080E9485
:100DD000BC060895A5E0B0E0E0EFF6E00C94F71E45
:100DE0002596E2E00C94131FA6E0B0E0EAEFF6E0EF
:100DF0000C94F71E2696E2E00C94131F08950E94AF
:100E0000FE0608950E94FF0690939F0180939E0125
:100E1000089508950E940207089520919E0130913F
:100E20009F01822B932B0E940207089520919E011F
:100E300030919F01822393230E94020708952091FD
:100E40009E0130919F01822793270E9402070895F7
:100E50000E94FE0608950E94280708950E942B070D
:100E600090939D0180939C01089590E080E00E9402
:100E70002E07089521E030E0A90102C0440F551F5C
:100E80008A95E2F7CA010E942E07089521E030E01A
:100E900002C0220F331F8A95E2F780919C01909146
:100EA0009D01822B932B0E942E07089521E030E0B4
:100EB00002C0220F331F8A95E2F72095309580916A
:100EC0009C0190919D01822393230E942E070895F7
:100ED00021E030E002C0220F331F8A95E2F78091B3
:100EE0009C0190919D01822793270E942E070895CF
:100EF00020919C0130919D01822B932B0E942E0703
:100F0000089520919C0130919D01822393230E949A
:100F10002E07089520919C0130919D0182279327EF
:100F20000E942E0708950895262F277091E001C092
:100F3000990F2A95EAF723E0769567952A95E1F7C8
:100F4000660F771F660F771FFA01E60FF71F50E055
:100F500040E0682F70E08191DF0111979B01042E22
:100F600002C0369527950A94E2F72170219528272B
:100F7000292328272C934F5F5F4F4430510559F7A1
:100F80000895A82FA77023E0969587952A95E1F7F5
:100F9000880F991F880F991FFB01E80FF91F50E078
:100FA00040E080E0219130E00A2E02C0369527957E
:100FB0000A94E2F721703327042E01C0220F0A940D
:100FC000EAF7822B4F5F5F4F4430510559F7089580
:100FD000262F963068F4843058F434E0939FB001A3
:100FE0001124680F711D40E951E0822F0E9494077F
:100FF0000895963070F4843060F444E0949F90013A
:10100000112460E971E0820F932F911D0E94C107A6
:10101000089580E00895B0E0A0E0E1E1F8E00C94EC
:10102000F01E7C0100919C0110919D0180919E0118
:1010300090919F01082B192BCFE0D0E0CC24C394D2
:10104000D12CBC2EC6010C2E02C0880F991F0A9409
:10105000E2F780239123892B49F4219790F7B12C53
:101060008B2DCDB7DEB7E9E00C940C1FB7018C2FA8
:101070000E946C0E019789F3F3CFCF93DF93EC01BD
:101080000E940B08BE010E946C0EDF91CF91089563
:101090001F93CF93DF93EB0190918F01992339F048
:1010A000CB010E943D08DF91CF911F9108958823C5
:1010B00069F0CB010E940B08182F682FCE010E9407
:1010C000E807BE01812F0E946C0EEDCFCB010E947C
:1010D000F907182FF6CF1F93CF93DF93C091A0018C
:1010E00016E08091A1018C1304C0DF91CF911F9174
:1010F0000895D0E01C9FF0011D9FF00D1124EE55C6
:10110000FE4F4081518162817381848195810E946B
:10111000F4062196C770E5CF4091D2015091D301DA
:101120006091D4017091D5018091D6019091D70141
:101130000E94F40608951F93CF93DF938091D70107
:10114000807F09F049C08091D401882309F444C00C
:101150008091A001C091A1016091D2017091D30151
:10116000A091D501B091D601D62FD72316E0C8178C
:1011700099F190E0109711F0DF3F19F40196877014
:10118000F6CF189F9001199F300D1124F901EE55EB
:10119000FE4F41814713F2CF40814613EFCF42818A
:1011A0004111ECCF438154814A1B5B0B483C5105F4
:1011B00028F78091D7018F7080618093D701F90162
:1011C000E955FE4F80818F708061808382ED91E0D0
:1011D0000E9477060E946B08DF91CF911F910895BE
:1011E000A1E1B0E0E6EFF8E00C94EF1E8C0185E0A1
:1011F000F801DE011D9601900D928A95E1F7F80144
:10120000E28082EDC82E81E0D82E6091D5017091E8
:10121000D6016115710509F44EC19091D20120915A
:10122000D301892F82238F3F09F445C14081518129
:10123000A380B480F090D401F501E61BF70BFF20EA
:1012400009F4EAC08091D701382F307FE83CF105DE
:1012500008F0A3C031116DC0FE2C251316C09413E5
:1012600014C0E11012C08F7080618093D7010E947A
:101270008C08C6010E9477068091D701F80185830A
:101280008F2D6196EAE00C940B1FA114B10429F094
:10129000842F85238F3F09F027C180E0F82FF1705C
:1012A000DF2E80FF3CC08091A0012091A10136E09B
:1012B000821315C04D875E878D859E850E943D08EF
:1012C000292F22952F702230F0F0243018F59F70CE
:1012D000F1F0F8019581907FD1F4D12C1EC090E0FF
:1012E000389FF001399FF00D1124EE55FE4F6181BA
:1012F000651306C06081641303C06281E6120FC0EB
:1013000001968770D5CF9F7011F0882331F3805EEE
:10131000883018F3C8010E947706FD2CB1CFEE206B
:1013200009F4AECF8091D70181608093D701F12C71
:10133000A7CF251306C0941304C0F801EE2009F4CA
:1013400087C0C8010E94D706882319F1EE2009F151
:101350008091D701803270F02091D2013091D30179
:1013600038872F831986BB86AA868C87CE0107967D
:101370000E94770686E0F801A2EDB1E001900D929F
:101380008A95E1F70E949B080E948C08FF24F39441
:1013900077CFC8010E947706F9CF311113C07A2D9B
:1013A000B98AA88A6E2D89890E94EA0682ED91E0A9
:1013B0000E94770686E0F60111928A95E9F70E946D
:1013C0008C08B5CF25130FC094130DC0E1100BC0CE
:1013D000F8018583C8010E94770686E0F601119224
:1013E0008A95E9F74DCFC8010E94D706882389F274
:1013F000EE2079F28091D701803208F4BBCF2091A2
:10140000D2013091D3013A8329831B82BD82AC8201
:101410008E83CE010196ACCFE83CF10508F03EC0CA
:10142000FE2CEE2009F4B5CF25132AC0941328C052
:101430008091D70180FD1BC0982F907FC1F0F801EB
:101440008583903F31F0982F907F905F8F70892B2C
:101450008583C8010E94770686E0F801A2EDB1E01D
:1014600001900D928A95E1F70E948C0809CF86E0E1
:10147000F801A2EDB1E001900D928A95E1F700CF5D
:10148000C8010E94D706811175CF8091D701816074
:101490008093D701C8010E947706F2CE7A2DB98ACF
:1014A000A88A6E2D89890E94EA0686E0F6011192CB
:1014B0008A95E9F7D9CFEE2009F46BCFC8010E94D5
:1014C000D706F82E882309F464CF86E0F801A2ED50
:1014D000B1E001900D928A95E1F782ED91E00E94D2
:1014E0003D030E949B08C0CF81E08E25D7CEACE0A3
:1014F000B0E0EDE7FAE00C94F61E4F835887698759
:101500007A878B879C87CE0107960E94F0088823F4
:1015100069F08A859B85892B39F04F815885842F06
:1015200085238F3F09F06BC016E05FC086E0FE01A7
:101530003796DE01119601900D928A95E1F78A8522
:101540009B85892B89F38F81988589238F3F61F350
:101550002091A10130E0C90101968770992740913F
:10156000A0014817190671F40E94B7061092A10154
:101570001092A00186E0E2EDF1E0DF011D928A9574
:10158000E9F7D2CF96E0929FD001939FB00D11243E
:10159000AE55BE4FFE01319601900D929A95E1F73E
:1015A0008093A1010E946B08BFCF819FC0011124CD
:1015B0008E559E4F0E94F0088823E9F0E091A0012B
:1015C0001E9FF0011124EE55FE4F40815181628132
:1015D0007381848195810E94F4068091A00190E03E
:1015E0000196877099278093A0018091A001909126
:1015F000A1018913DACF2C96E3E00C94121F6985C0
:101600007A858B859C850E94F4068ECF682F809109
:101610000001909101010E94FA160895682F8091AF
:101620000001909101010E94081708958091000126
:10163000909101010E94161708958091F8018595F7
:101640008595859508958091F8018770089590910A
:10165000F801977081E009F480E0089580911B0201
:10166000089590911B02892B80931B020895809509
:1016700090911B02982390931B02089510921B02D5
:10168000089590911A02892B80931A0208958095EB
:1016900090911A02982390931A02089510921A02B8
:1016A00008958091F901089508950E94540B0895BA
:1016B00090916C0292FF08C09091F901981721F067
:1016C0008093F9010E94550B08958091F9018823B8
:1016D00029F01092F90180E00E94550B0895CF93F4
:1016E000DF93E0910001F091010180911B02808362
:1016F000E0910001F0910101808190911A02892B03
:1017000080839091F901992381F0E0910001F0919B
:1017100001018081892B80838091000190910101DA
:101720000E94661681110E94650BC0910001D09144
:10173000010140E250E068ED71E0CE010E94321FED
:10174000892B59F080E2FE01A8EDB1E001900D92E5
:101750008A95E1F7CE010E94F415DF91CF910895AB
:1017600008950E94B00B089590916C0292FF11C0F1
:1017700098E0899F90011124622B6093F8010E94E8
:1017800046078091F8018595859585950E94B10B56
:1017900008950E94460708951092F80180E00E9483
:1017A000B10B08959091F801809589238093F801F9
:1017B000282F277091F4282F082E000C330B921736
:1017C000130659F090916C0292FF07C0859585959C
:1017D00085950E9456070E94CC0B089590916C024B
:1017E00092FB222720F9281769F080FB92F9909349
:1017F0006C0280916B0290916C020E94360C82E028
:101800000E94D20B089580916C0282FB882780F998
:1018100091E089270E94EE0B089581E00E94EE0B73
:10182000089580E00E94EE0B08956FEF7FEF90E047
:1018300080E00E94741F089590E080E00E94501F95
:1018400021E0873E9E4F09F020E0822F089582E03C
:1018500090E00E94481F089583E090E00E94481F96
:10186000089584E090E00E94501F0895BC0184E038
:1018700090E00E94741F0895AB01BC018FE090E0DE
:101880000E94681F0895AB01BC0183E190E00E94B3
:10189000681F089560E070E0CB010E94430C08953A
:1018A00060E070E0CB010E943C0C0E944A0C08955D
:1018B00067EE7EEF90E080E00E94741F60E082E0BF
:1018C00090E00E94561F60E083E090E00E94561F67
:1018D00010929F0110929E0160E074E184E090E01C
:1018E0000E94741F60E086E090E00E94561F6FEF38
:1018F00087E090E00E94561F40E050E0BA0188E087
:1019000090E00E94681F60E08DE090E00E94561F0A
:1019100040E050E0BA0188E190E00E94681F60E07A
:1019200087E190E00E94561F40E050E0BA018CE150
:1019300090E00E94681F70E060E080E290E00E940A
:10194000741F40E050E0BA0188E190E00E94681FF7
:101950000E94500C08950E94580C0895682F8EE044
:1019600090E00E94561F08950E94E317609328029A
:101970007093290280932A0290932B026093240291
:10198000709325028093260290932702089508956C
:1019900008950E94C80C089508950E94CC0C0895E3
:1019A00086E59FE00E94DD150E94C70C0E94C90CCD
:1019B000089581E008950E94D90C0895089508952E
:1019C0000E94DE0C0E94DF0C08950E94750F0E9499
:1019D000DC0208950E94CE170E943C100E94E50C84
:1019E0000E94CD0C0895AAE0B0E0E9EFFCE00C9471
:1019F000EF1E0E9452108EE1A82E82E0B82E7501D3
:101A000010E0F70101917F01812F0E949A0F1F5F63
:101A1000163009F440C00817A1F380912C0281FD13
:101A20000E94A00F0E94DB0CC82E10E0812F0E94A4
:101A30009A0F082FF50181915F01081731F1D02E1F
:101A4000D826F12CEE24E3948D2D8E21B1F0CC20FC
:101A5000A1F0FE821F8391E0802F8E2109F490E097
:101A600098870E94D7178160782F9A8789874E813F
:101A70005F8168858A850E940803F394EE0CF4E088
:101A8000FF12E2CFF501319700831F5F163071F628
:101A90000E94B40C20C00813C0CF0E94D7178C013D
:101AA00080911C0290911D0208171907A1F08FEF79
:101AB00089838A831B820E94D7178160782F9D8338
:101AC0008C8349815A816B818D810E940803109318
:101AD0001D0200931C020E946E120E94EF022A96C1
:101AE000EAE00C940B1FCF93DF930E94710EEC0180
:101AF000811520E59207D0F5811530E4930708F0B1
:101B000086C0803E910518F58D3C910508F07DC09A
:101B1000883A910570F4853A910508F06EC08130DD
:101B2000910501F10097F1F00497E0F4D0E0C0E0F6
:101B300019C0813C9105D0F7C85AD0E0CC0FDD1F09
:101B4000C85BDE4F0990D881C02DD4640BC08115CD
:101B5000904208F0A8C0C11581E0D80718F4C83E2B
:101B6000D10520F7CE01DF91CF910895803622E58F
:101B7000920710F5803432E5930708F052C08032A6
:101B8000924508F047C0C11582E5D80708F47DC02A
:101B90002C2F2695269540E2249F900111248C2F0E
:101BA0008370C1E0D0E002C0CC0FDD1F8A95E2F760
:101BB000C22BD32BDD68D6CF803A22E5920760F4A2
:101BC000803832E5930708F441C0CF71D0E0DC2FB4
:101BD000CC27C46FD06AC6CF803C42E5940708F496
:101BE00049C0C03E82E5D80708F0A0CFDC2FCC2743
:101BF000CC27DF71C06FD06AB5CFC55AD0E0C658C8
:101C0000DE4FC881D0E0D064ADCFD065ABCFDF7000
:101C1000D06AA8CFCF71D0E0DC2FCC27C16FD06ABB
:101C2000A1CF282F26952695277080E2289F900126
:101C300011248C2F8370C1E0D0E002C0CC0FDD1FD7
:101C40008A95E2F7C22BD32BDC688CCF282F269500
:101C50002695277040E2249F900111248370C1E0F3
:101C6000D0E002C0CC0FDD1F8A95E2F7C22BD32B48
:101C7000DA6878CF8F710E94130FC82FD0E0DC2F65
:101C8000CC27CC27DF71D0626DCF8C2F8F710E9453
:101C9000130F35E0D695C7953A95E1F7CF709C2F95
:101CA000EC01D0695FCF8D2F8F710E94130F90E0F0
:101CB000982F882788279F719C012C2BE901E3CF5F
:101CC000462F763030F4643020F4672F0E94F701FD
:101CD000089590E080E008950E94600E0E94730DC8
:101CE000089582389105B9F1B0F48133910509F472
:101CF0007DC048F48932910509F46DC08A3291059E
:101D000009F47BC008958533910509F45FC08933D8
:101D1000910509F10895833E9105D9F138F4803E8B
:101D2000910529F1823E910579F10895863E91054C
:101D3000D9F1873E910509F43EC0843E910541F5F5
:101D400020916C0221FF24C080916B0284FD19C098
:101D500087EE90E0089520916B02237009F05AC03D
:101D600020916C0223FF14C089E290E00895209135
:101D70006B0220FD38C030916C0230FF09C024FF97
:101D800043C090E080E0089520916B0222FDF7CFE0
:101D9000089520916B0222FD3AC030916C0230FD13
:101DA00039C024FFF5CFEDCF20916B0223FFF0CF98
:101DB00024FDE7CFCDCF20916B0223FD2EC03091C3
:101DC0006C0231FFEECF84EE90E0089520916B021B
:101DD00025FFDECFC9CF20916B0225FD21C02091C8
:101DE0006C0223FFD5CF89E390E0D2CF20916B0224
:101DF00026FFCECF8AE290E0089520916B0226FF65
:101E0000C7CF81E390E0089583EE90E0089582EEDD
:101E100090E0089580EE90E0089586EE90E00895B9
:101E200085E390E0089590916B0292FF06C0282F01
:101E300028712830F9F4877F846093FF06C0282F2B
:101E400028712831F1F4877E846120916C0220FF93
:101E500006C0382F38713830D9F4877F816021FF70
:101E600006C0282F28712831D1F4877E816194FD26
:101E7000877E0895282F24712430F9F68B7F88609F
:101E8000DCCF282F2471243101F78B7E8861DDCFD0
:101E9000382F3171313019F78E7F8860E0CF282FCD
:101EA0002171213121F78E7E8861E1CF80E0089594
:101EB0000E94150C08950E9452102FEF86E791E0C2
:101EC000215080409040E1F700C000000E94521075
:101ED00080E00E949A0F80FF04C00E94580F0E9469
:101EE000221808950E945B0F08950E941C0C811116
:101EF00002C00E94AB0C0E94270C80932C020E940F
:101F0000310C90936C0280936B020E94720F0E94BE
:101F10002C0C90E00E940A0780919C0190919D01F9
:101F20000E942B07089508950E94930F08950E9420
:101F3000D9010895E82FF0E0ED58FD4F8081089514
:101F4000089580EA8A95F1F7089500C008950E94E7
:101F5000A10F0895F894E82FE295EF70F0E031A119
:101F6000282F2F7081E090E001C0880F2A95EAF7B2
:101F7000982F9095932391A392A1892B82A3789473
:101F80000895CF93DF93C1E8D1E089918F3F11F09D
:101F90000E94AA0F81E0C738D807B9F785EF0E94E1
:101FA000AA0F86EF0E94AA0F87EF0E94AA0F84E96A
:101FB0000E94AA0FDF91CF910895B0E0A0E0E3EE78
:101FC000FFE00C94F11EEC01D62E062F10E0C801A4
:101FD0008F579E4F7C01FC0180818F3F09F445C0E3
:101FE000F894E82FE295EF70F0E091A18F7021E076
:101FF00030E001C0220F8A95EAF7892F822B81A356
:1020000082A12095282322A378940E94A50FEDE7B2
:10201000F1E041E851E031E0C12C21912F3F51F135
:10202000A22FA295AF70B0E090968C9190E02F70A7
:1020300002C0959587952A95E2F780FD1BC0832FF6
:10204000C82A330F4E175F0741F7F70180818F3F92
:1020500011F00E94AA0F61E0C11001C060E08D2D57
:102060000E94A70FC00FD11FC882CDB7DEB7E8E02E
:102070000C940D1F80E0E4CF0E94C10F86E0E3E7DF
:10208000F2E0DF01982F1D929A95E9F7EDE6F2E074
:10209000DF011D928A95E9F786E00E948D100E946B
:1020A00047020895A6E0B0E0E8E5F0E10C94F41EE4
:1020B0008E010F5F1F4F86E0F80111928A95E9F7B4
:1020C000F12C6F2DC8010E94DD0FF394F6E0FF1292
:1020D000F8CF46E050E0B8018DE692E00E94321F52
:1020E00021E0009709F420E0892B41F086E0F80117
:1020F000ADE6B2E001900D928A95E1F746E063E724
:1021000072E08DE692E00E948E10182F0E944A0223
:10211000812F2696E5E00C94101F0895CF92DF9250
:10212000EF92FF920F931F93CF936C017B01042FCB
:10213000222349F081E080932F020E94D7179093C9
:102140002E0280932D02C0912F02C1110AC0C0E05F
:102150008C2FCF911F910F91FF90EF90DF90CF9038
:10216000089580912D0290912E020E94EF170597FD
:1021700070F310E0A801B601C7010E94321F892B3D
:1021800041F0A801B601C7010E943F1F10922F0223
:10219000DFCFC0E0FBCF0E94A8190E94EA0C0E948A
:1021A000B51908950E94BA190E94F30C0E94D4191F
:1021B00008950E9470170E948E190E94D00C0E94F0
:1021C000CB100E94D2100E94E00CFBCF809136020F
:1021D00080FF0DC06091070170E0660F771F6038C7
:1021E000710570F56115710569F1862F089581FFFC
:1021F00007C06091070184E0689FB0011124EFCF10
:102200006091070182FD0AC0809135028823A9F000
:102210002091060160910701821710F088E0ECCF51
:10222000869FC001112433E0880F991F3A95E1F78A
:10223000622F70E00E94CD1ED2CF68E070E0D5CF53
:102240008FE7089581E008958091360280FF0CC0E9
:102250006091030170E075956795759567956115B7
:10226000710549F1862F089581FF06C06091030131
:1022700070E075956795F3CF6091030182FD0BC007
:10228000909134029923A1F06091020180910301A1
:10229000961738F0682F70E06038710500F38FE70B
:1022A0000895899FC001112470E00E94CD1EF4CFD3
:1022B00061E070E0D7CF81E008958D3C31F40E9459
:1022C000E610819580933A0208958E3C19F40E949D
:1022D000E610F8CF8F3C31F40E94E6108195809390
:1022E00039020895803D19F40E94E610F8CF893D27
:1022F00029F40E94241180933B0208958A3D21F421
:102300000E9424118195F7CF8B3D31F40E94241156
:10231000819580933C0208958C3D19F40E9424110C
:10232000F8CF9FE2980F983070F4815D990B21E00F
:1023300030E001C0220F8A95EAF780913802822BA3
:102340008093380208958D3D31F48091360281608A
:102350008093360208958E3D21F48091360282608A
:10236000F7CF8F3DB9F7809136028460F1CF40916D
:1023700039028D3C59F480913A0287FF0DC01092CA
:102380003A0241110BC01092350208C08E3C81F414
:1023900080913A0218169CF3442381F080913B020D
:1023A00090913C02892B09F05AC010923402089592
:1023B0008F3C49F447FFF0CF1092390280913A02E6
:1023C0008111ECCFE0CF803D19F41416ACF3E4CFCB
:1023D00090913B02893D29F41916F4F610923B02C4
:1023E000DBCF8A3D19F497FFD7CFF8CF90913C020D
:1023F0008B3D29F497FFD0CF10923C02CDCF8C3D7E
:1024000019F41916CCF3C8CF9FE2980F983090F4C6
:10241000815D990B21E030E0B90102C0660F771FA2
:102420008A95E2F7CB0180959091380289238093B9
:102430003802B2CF8D3D31F4809136028E7F809389
:102440003602AACF8E3D21F4809136028D7FF7CFE0
:102450008F3D09F0A1CF809136028B7FF0CF089598
:102460000E94D7179C019091390280913A02982BD3
:1024700021F0309333022093320290913B028091FD
:102480003C02982B21F0309331022093300287E3F5
:1024900092E00E940E16089586E0E7E3F2E0DF0185
:1024A0001D928A95E9F7109235021092340210922B
:1024B00036020895FC01828181110EC08381811151
:1024C0000BC08481811108C091E08581811101C018
:1024D00090E0892F8170089581E0FCCFA6E0B0E004
:1024E000E4E7F2E10C94F61E86E0E7E3F2E0DE01B9
:1024F000119601900D928A95E1F71092390210928F
:102500003A0210923B0210923C028B819C81892BF3
:1025100089F080913202909133020E94EF17AC0152
:10252000909135029923C9F180910801841715060D
:1025300008F440C08D819E81892B91F080913002FA
:10254000909131020E94EF17AC01909134029923CF
:1025500009F471C0809104018417150608F479C04C
:10256000BE016F5F7F4F87E392E00E9428178111C1
:1025700005C087E392E00E945A1281110E94301236
:1025800086E0FE013196A7E3B2E001900D928A95B4
:10259000E1F72696E3E00C94121F209109018AE0EE
:1025A000289F900111242417350720F69F5F9093F0
:1025B000350202C09F3FD1F71B81112359F00E94C1
:1025C000E6109FEF11160CF491E0899F802D1124E5
:1025D000809339021C81112359F00E94E6109FEF6D
:1025E00011160CF491E0899F802D112480933A02FA
:1025F00030913902332309F49DCF20913A022223EE
:1026000009F498CF45EB3403C0011124992359F004
:102610009093390245EB240390011124332339F0C0
:1026200030933A0287CF81E080933902F3CF81E083
:1026300080933A027FCF209105018AE0289F900184
:1026400011242417350708F08BCF9F5F9093340235
:1026500002C09F3FD1F71D81112359F00E94241120
:102660009FEF11160CF491E0899F802D1124809327
:102670003B021E81112359F00E9424119FEF111675
:102680000CF491E0899F802D112480933C023091BD
:102690003B02332309F464CF20913C02222309F446
:1026A0005FCF45EB3403C0011124992359F0909377
:1026B0003B0245EB240390011124332339F030937E
:1026C0003C024ECF81E080933B02F3CF81E08093C8
:1026D0003C0246CFCF93DF93EC01FB01828188233C
:1026E00009F4D2C09E0130572332310508F0B2C040
:1026F0000E94310C90936C0280936B02FE01E150BA
:10270000F047E232F10520F4E856F04E0C94E11E59
:1027100080916B02816080936B0293C080916C0208
:10272000886080936C028DC080916B028260F3CFD1
:1027300080916B028460EFCF80916B028860EBCF59
:1027400080916C028160EDCF80916C028260E9CF54
:1027500080916B028061DFCF80916B028062DBCF62
:1027600080916B028064D7CF0E94B70680916B0284
:102770008068D1CF80916B028C60CDCF80916C024C
:102780008360CFCF80916B028E7FC5CF80916C022A
:10279000877FC7CF80916B028D7FBDCF80916B0209
:1027A0008B7FB9CF80916B02877FB5CF80916C0210
:1027B0008E7FB7CF80916C028D7FB3CF80916B02FB
:1027C0008F7EA9CF80916B028F7DA5CF80916B0208
:1027D0008F7BA1CF0E94B70680916B028F779BCF32
:1027E00080916B02837F97CF80916C028C7F99CF11
:1027F00080916B0282FB992790F921E0922790FB50
:1028000082F990FB83F987CF80916C02982F909585
:1028100091708E7F892B90FB81F983CF90916B0211
:10282000892F8F7B96FF806476CF0E94B7069091A8
:102830006B02892F97FB87F980586DCF81E00E944A
:10284000AE0C80916B0290916C020E94360C0E943B
:10285000B70680E0DF91CF91089580E0F0CF9091AE
:102860006B02892F8F7E94FF806155CF90916B0210
:10287000892F8E7F90FF81604ECF90916C02892FBF
:10288000877F93FF88604DCF81E0E4CFB0E0A0E088
:10289000ECE4F4E10C94F21EE82FF0E0E05EFE4F71
:1028A000D490282F26952695269530E0F901E054FE
:1028B000FE4F0491877010E0082E02C01595079511
:1028C0000A94E2F701701127F901E055FE4FE490F8
:1028D000F12C082E02C0F594E7940A94E2F791E0F7
:1028E000E922FF24F901E056FE4FC491D0E002C076
:1028F000D595C7958A95E2F7C170DD2701151105B9
:1029000019F081EE0E944D03E114F10419F086EEF6
:102910000E944D038D2D0E945104E114F10419F021
:1029200086EE0E94DF030115110519F081EE0E9469
:10293000DF03CD2B19F08CE20E945104CDB7DEB736
:10294000E7E00C940E1FEF92FF920F931F93CF932B
:10295000DF938C01F62E8AE0E82EF801849188231B
:1029600009F454C0813009F04DC0E8012196FE0100
:102970008491813091F42196FE0184910E9451044A
:102980008E010F5F1F4F8F2D815038F3EFE9FFE06D
:102990003197F1F700C00000F7CF823039F4E80139
:1029A0002296FE0184910E944D03EACF833039F4D0
:1029B000E8012296FE0184910E94DF03E1CF84307A
:1029C000F9F6E8012296FE01249190E080E0FE01F4
:1029D00031962053330B2A30310548F0019780F2AD
:1029E000EFE9FFE03197F1F700C00000F7CFE89E74
:1029F000A001E99E500D1124C901840F951F249157
:102A0000EF01E5CF0E944614E801BACFCDB7DEB79B
:102A1000E6E00C940F1FCF93DF93EB0186319C47C8
:102A200011F50E942E0B9A81992399F08A7A91E0F0
:102A300009F490E090933D02811109C089E20E945F
:102A4000060B0E946F0B80E0DF91CF91089585E324
:102A5000F6CF80913D02811104C089E20E940E0BE5
:102A6000F0CF85E3FBCF81E0EFCF0F931F93CF93A0
:102A7000DF93C42FD22FFC0182818823C9F04093B9
:102A800040020E94D71790933F0280933E0280E25B
:102A90008C0F883040F4C77081E001C0880FCA9560
:102AA000EAF70E945A04DF91CF911F910F91089588
:102AB00010914002141332C080913E0290913F0267
:102AC0000E94EF17883C910548F5C0E2CD0F1D1715
:102AD000B9F080E2810F883040F4177081E001C0C6
:102AE000880F1A95EAF70E946104C83048F481E023
:102AF0009D2F977001C0880F9A95EAF70E945A049B
:102B0000802F0E945104C83070F6D77081E001C058
:102B1000880FDA95EAF70E946104C5CF80E28C0F36
:102B2000883008F6C77081E001C0880FCA95EAF7BF
:102B3000F2CF0F93DB0188519C4787309105A0F5B8
:102B4000FC01E654F04E0C94E11E06E221EE41EE4B
:102B50006AE17CE7CD010E94351580E00F91089570
:102B600007E225EE45EE6BE17CE7F4CF06E221EECD
:102B700040EE68E17CE7EECF07E225EE44EE69E146
:102B80007CE7E8CF06E221EE42EE6CE17CE7E2CFA3
:102B900007E225EE46EE6DE17CE7DCCF08E221E0BE
:102BA00045EE6EE17CE7D6CF12968C91882319F022
:102BB00010924002D3CF81E0D1CF909389018093CE
:102BC0008801089590934602809345020895E0910C
:102BD0004502F0914602309729F00190F081E02DF6
:102BE0000995089580E00895E0914502F09146022C
:102BF000309799F020911201222359F020916B0215
:102C000027FF07C0DC012C9111962C93119726E029
:102C10002C930280F381E02D09950895E0914502FF
:102C2000F0914602309739F022E0DC012C930480C9
:102C3000F581E02D09950895A3E0B0E0E2E2F6E128
:102C40000C94F71E20914302309144022817390753
:102C5000A1F09093440280934302E0914502F091E9
:102C60004602309751F023E029839B838A830680B4
:102C7000F781E02DCE01019609952396E2E00C94B0
:102C8000131FA3E0B0E0E7E4F6E10C94F71E2091F7
:102C900041023091420228173907A1F09093420275
:102CA00080934102E0914502F0914602309751F045
:102CB00024E029839B838A830680F781E02DCE015F
:102CC000019609952396E2E00C94131FFC013296BD
:102CD00080911201882321F080916B029EE187FF91
:102CE00096E080E0915008F4089521912223D1F3D9
:102CF0008F5FF8CF662301F1209112012223F1F0BA
:102D000020916B0227FF1AC0462F4695469546959F
:102D10004E3190F4677021E030E002C0220F331F83
:102D20006A95E2F7840F911DFC01828190E02823CF
:102D3000392381E0232B69F480E00895FC01329669
:102D400008962191261721F0E817F907D1F7F4CF5B
:102D500081E008959C01FC0132969FEF80E0419153
:102D6000461751F09F3F19F4411101C0982F8F5F12
:102D70008630A9F79F3F09F40895290F311D97FD6B
:102D80003A95F90162830895FC01329608962191E3
:102D9000261303C0DF0111971C92E817F907B9F752
:102DA0000895E62FE695E695E695EE3168F4E80F8E
:102DB000F92FF11D677021E030E001C0220F6A9504
:102DC000EAF78281822B82830895E62FE695E695C5
:102DD000E695EE3170F4E80FF92FF11D677021E0F0
:102DE00030E001C0220F6A95EAF7209582812823FE
:102DF0002283089520911201222339F020916B0241
:102E000027FF03C00E94D11608950E94AA160895B4
:102E100020911201222339F020916B0227FF03C079
:102E20000E94E51608950E94C4160895FC0132968A
:102E300080911201882351F080916B0287FF06C0B8
:102E40008EE1DF011D928A95E9F7089586E0F9CFBA
:102E500046E050E00E94321F21E0892B09F420E077
:102E6000822F089508950E9432170895811106C097
:102E700081E0809347020E943317089582E0F9CFE2
:102E800083E0809347020E94331708950E9436170B
:102E9000089581E0809347020E94331708950E94AD
:102EA00049170895089508950E94531708950895A5
:102EB00008950E9452170895CF930E9457170E94B9
:102EC00052100E945817C0E08C2F0E949A0F811157
:102ED00005C0CF5FC630C1F7CF91089581E0FCCF28
:102EE00085B7806885BF85B7806885BF08951F92C4
:102EF0001FB61F9211248F939F93AF93BF9380911E
:102F00004802811113C08091790290917A02A091B8
:102F10007B02B0917C024196A11DB11D8093790284
:102F200090937A02A0937B02B0937C02BF91AF9101
:102F30009F918F911F901FBE1F90189580918102C5
:102F4000843031F10E94BC021092480288E190E086
:102F500020E40FB6F894A895809360000FBE2093EC
:102F6000600083B7817F846083BF83B7816083BF44
:102F70007894889583B78E7F83BF0FB6F894A89511
:102F800080916000886180936000109260000FBEA5
:102F900008950E94B7060E94C102089582E084BD90
:102FA00093E095BD9AEF97BD80936E0008952FB77B
:102FB000F8948091790290917A02A0917B02B0916D
:102FC0007C022FBF08952FB7F89460917902709119
:102FD0007A0280917B0290917C022FBF08959C0120
:102FE0004FB7F8948091790290917A02A0917B0278
:102FF000B0917C024FBF821B930B089578941F926F
:103000001FB61F9211248F939F93AF93BF9380910C
:10301000790290917A02A0917B02B0917C02019694
:10302000A11DB11D8093790290937A02A0937B0237
:10303000B0937C02BF91AF919F918F911F901FBE63
:103040001F90189587E797E79093010880930008F1
:1030500088E19AE00FB6F894A895809360000FBEBF
:1030600090936000FFCF88E19AE00FB6F894A8959E
:10307000809360000FBE90936000FFCF8091690243
:1030800008959B01BA01909181029430E9F48F7008
:103090008093E9009FEF8091E800915085FD06C084
:1030A00085ED8A95F1F700009111F5CF8091E80048
:1030B00085FF0AC050E040E0C9010E94461A809195
:1030C000E8008E778093E800089543E050E0BC016B
:1030D00082E00E944118089546E050E0BC0182E081
:1030E0000E9441180895CF93DF93EC018091120163
:1030F000811111C048E050E0BE0181E00E944118FA
:1031000080E2FE01A9E4B2E001900D928A95E1F718
:10311000DF91CF91089580916B0287FF05C040E257
:1031200082E050E0BE01EACF48E081E0FACF809132
:103130008002811109C00E94D61B0E94331C80911D
:10314000E20084608093E200089510928002089566
:103150000E944917089560917D0281E0611101C0CC
:1031600080E00E94401708959091810281E09430A0
:1031700009F080E060917D020E944617089542E0C8
:1031800061EC81E00E94521B42E261EC82E00E940D
:10319000521B9091810281E0943009F080E06091AF
:1031A0007D020E943617089580918302833009F4CE
:1031B00061C030F48130D1F1823009F49EC00895AD
:1031C0008A3009F48AC08B3009F46FC0893009F065
:1031D00050C080918202813209F04BC080918602FA
:1031E00090918702029708F044C08091E800877FA1
:1031F0008093E8008091E80082FF37C09091F3004F
:103200008091F200029731F48091F100813011F049
:10321000863021F48091F100809369028091E8006A
:103220008B778093E8000E94861B23C080918202E6
:10323000813AF9F48091E800877F8093E8008091DB
:10324000860290918702892B61F460E289E492E022
:1032500070E00E94951A8091E8008B778093E800D7
:10326000089560E090E080E0F3CF809181028111C9
:10327000C1CF089580918202813AD9F78091860268
:1032800090918702892BA9F78091E800877F80932E
:10329000E8008091E80080FFFCCF809112018093CC
:1032A000F1008091E8008E77BCCF8091820281325C
:1032B00001F78091860290918702892BD1F6809147
:1032C000E800877F8093E8000E94861B809184023B
:1032D000809312010E94B706089580918202813284
:1032E00041F68091E800877F8093E8000E94861B6A
:1032F0008091850280936A02089580918202813ACA
:1033000009F0B7CF8091E800877F8093E800809133
:10331000E80080FFFCCF80916A02C1CF84B7877F2D
:1033200084BF0FB6F894A89580916000886180935F
:103330006000109260000FBE80E890E00FB6F89435
:1033400080936100909361000FBE0E944F17089513
:103350000E94D61B0E94331CE2EEF0E08081846064
:10336000808378940E94B21E08958AE091E00E94C2
:10337000E215089580918102853031F480918102B7
:10338000853019F00E94C91708950E949E178091F8
:103390007F02882399F30E945C17882379F30E94A7
:1033A000301A0E94B706EACF08950E94D8190895EE
:1033B000292F33272330310519F168F421303105E5
:1033C00009F444C02230310509F445C090E080E0A2
:1033D00030E020E025C02132310549F122323105AB
:1033E000A9F780E490E02FEF32E061157105C1F09C
:1033F00086EB90E029E432E06130710589F0E6CF98
:1034000099278130910581F0009729F00297F1F614
:10341000E0EDF1E002C0E8EFF1E0849190E09F017F
:10342000FA01318320830895E2EEF1E0F6CF89E0DE
:1034300090E02EE032E06115710591F389E090E0B3
:1034400027E232E06130710559F3C0CF82E190E0AC
:1034500027E332E0E5CF8BE390E02CEF31E0E0CFE3
:1034600080E189BD82E189BD09B400FEFDCF809174
:10347000D8008F7D8093D8008091E0008260809397
:10348000E0008091E00081FDFCCF0895AF92BF92F3
:10349000CF92DF92FF920F931F93CF93DF936C0134
:1034A000EB018A010E94A51BF82E811123C0011592
:1034B000110539F0F80180819181C81BD90BC80E24
:1034C000D91EB12CA12C2097A9F08091E80085FD90
:1034D00022C08091E8008E778093E80001151105E5
:1034E000A1F0F80180819181A80EB91EB182A0825D
:1034F00085E0F82E8F2DDF91CF911F910F91FF90D6
:10350000DF90CF90BF90AF9008950E94A51B8823B5
:10351000D1F2F82EEFCFF60181916F018093F10087
:103520002197FFEFAF1ABF0ACECFFC01809188022E
:103530009091890286179707A0F06115710529F40B
:103540009091E8009E779093E80090E061157105F6
:1035500051F4911108C08091E80082FF34C080E0EE
:103560000895BC01F2CF809181028823C1F185309A
:10357000C1F18091E80083FD30C08091E80082FDB8
:10358000EACF8091E80080FFE1CF8091F3002091A5
:10359000F200382F6115710519F02830310558F007
:1035A00091E02830310509F090E02091E8002E7775
:1035B0002093E800CBCF81918093F1006150710995
:1035C0002F5F3F4FE7CF80918102882341F0853004
:1035D00041F08091E80083FFBECF81E0089582E052
:1035E000089583E00895FC018091880290918902FA
:1035F00086179707A0F06115710529F48091E800FE
:103600008E778093E80090E06115710551F4911177
:1036100008C08091E80082FF35C080E00895BC01B9
:10362000F2CF809181028823C9F18530C9F1809160
:10363000E80083FD31C08091E80082FDEACF8091EF
:10364000E80080FFE1CF8091F3002091F200382F55
:103650006115710519F02830310558F091E02830D6
:10366000310509F090E08091E8008E778093E800C2
:10367000CBCF84918093F1003196615071092F5F17
:103680003F4FE6CF80918102882341F0853041F0A1
:103690008091E80083FFBDCF81E0089582E0089526
:1036A00083E00895982F973028F08F708093E90079
:1036B00081E008959093E900242F762F50E0981729
:1036C00031F07091EC002091ED005091F00021FD5F
:1036D00002C09F5FE8CF3091EB003E7F3093EB005C
:1036E0003091ED003D7F3093ED003091EB00316083
:1036F0003093EB007093EC002093ED005093F000BA
:103700002091EE0027FDE5CF80E0089580918202B0
:1037100087FF13C08091E80082FF06C08091E80017
:103720008B778093E80004C0809181028111F2CFF1
:103730000895809181028823D9F38091E80080FF69
:10374000F8CF8091E8008E77ECCF2091E4003091A3
:10375000E50095E6A9012091EC00822F817020FF01
:1037600006C08091E80080FF06C080E008952091A7
:10377000E80022FD1AC080918102882389F08530FB
:1037800089F08091EB0085FD0FC02091E40030911D
:10379000E50042175307F9F29150E1F684E00895ED
:1037A00082E0089583E0089581E008950E94451C19
:1037B0000E944D1CE0EEF0E0808181608083E8EDA6
:1037C000F0E080818F77808319BCA7EDB0E08C9109
:1037D0008E7F8C9380818F7E8083109280020895EB
:1037E0000F931F93CF93DF930E94451C0E944D1CA3
:1037F000C8EDD0E088818F7788838881806888834E
:1038000088818F7D888319BC1092810210927D027D
:1038100010927F0210927E0200EE10E0F80180818B
:103820008B7F808388818160888342E060E080E0D4
:103830000E94521BE1EEF0E080818E7F8083E2EEF9
:10384000F0E0808181608083808188608083F801DE
:1038500080818E7F8083888180618883DF91CF9192
:103860001F910F910895E8EDF0E080818F7E8083B5
:10387000E7EDF0E080818160808384E082BF81E0B9
:10388000809380020E94F01B0895E8EDF0E08081B3
:103890008E7F80831092E20008951092DA001092D9
:1038A000E10008951F920F920FB60F9211242F93EB
:1038B0003F934F935F936F937F938F939F93AF93B8
:1038C000BF93EF93FF938091E10082FF0BC0809143
:1038D000E20082FF07C08091E1008B7F8093E100CE
:1038E0000E94B11E8091DA0080FF19C08091D8003B
:1038F00080FF15C08091DA008E7F8093DA0080917E
:10390000D90080FF96C080E189BD82E189BD09B4FC
:1039100000FEFDCF81E0809381020E949718809184
:10392000E10080FF19C08091E20080FF15C0809106
:10393000E2008E7F8093E2008091E20080618093BC
:10394000E2008091D80080628093D80019BC85E0A5
:10395000809381020E94AB188091E10084FF2BC00C
:103960008091E20084FF27C080E189BD82E189BDAA
:1039700089B5982F917080FFFBCF8091D8008F7D03
:103980008093D8008091E1008F7E8093E100809148
:10399000E2008F7E8093E2008091E200816080935C
:1039A000E20080917D02882309F449C084E080937D
:1039B00081020E94B4188091E10083FF29C08091A8
:1039C000E20083FF25C08091E100877F8093E100C2
:1039D00082E08093810210927D028091E1008E7FCF
:1039E0008093E1008091E2008E7F8093E2008091DD
:1039F000E20080618093E20042E060E080E00E94AB
:103A0000521B8091F00088608093F0000E94A818FB
:103A1000FF91EF91BF91AF919F918F917F916F91A6
:103A20005F914F913F912F910F900FBE0F901F907C
:103A3000189519BC109281020E94A51870CF809130
:103A4000E30087FD93E090938102B3CF1F920F9222
:103A50000FB60F9211242F933F934F935F936F9361
:103A60007F938F939F93AF93BF93CF93DF93EF9306
:103A7000FF93D091E900DF708091EC00C82FC170F6
:103A800080FDC0E81092E9008091F000877F80936C
:103A9000F00078940E946A1D1092E9008091F00075
:103AA00088608093F000CD2BCF70C093E900FF9128
:103AB000EF91DF91CF91BF91AF919F918F917F91C6
:103AC0006F915F914F913F912F910F900FBE0F908B
:103AD0001F901895AAE2B0E0E0E7FDE10C94F61E15
:103AE00082E892E02091F100FC012193CF01F2E005
:103AF0008A389F07B9F70E94D4188091E80083FFA5
:103B00001EC180918202909183029A3008F017C101
:103B1000E92FF0E0EF53F04E0C94E11E803899F05D
:103B2000823809F00CC1809186028F70873008F0CE
:103B300006C18093E9008091EB0085FB882780F91E
:103B40001092E90006C080917E0290917F0291114F
:103B500082609091E800977F9093E8008093F10055
:103B60001092F1008091E8008E77E5C0882309F477
:103B7000D3C0823009F0E3C0809184028111D6C0A5
:103B8000809186028F702FEF280F263008F0D7C063
:103B90008093E9002091EB0020FFC8C0933031F4FE
:103BA0008091EB0080628093EB00C0C09091EB00AD
:103BB00090619093EB0021E030E001C0220F8A95E4
:103BC000EAF72093EA001092EA008091EB00886007
:103BD000EACF8111B4C0109184021F778091E30075
:103BE0008078812B8093E3008091E800877F809329
:103BF000E8000E94861B8091E80080FFFCCF809146
:103C0000E30080688093E30082E0111183E08093F9
:103C1000810295C08058823008F091C08091840262
:103C2000909185028C3D23E09207A1F583E08A8381
:103C30008AE289834FB7F894DE01139620E03EE0D4
:103C400051E2E32FF0E050935700E49120FF03C0CE
:103C5000E295EF703F5FEF708E2F90E0EA30C0F09A
:103C6000C7968D939D932F5F243159F74FBF809155
:103C7000E800877F8093E8006AE270E0CE01019659
:103C80000E94951A8091E8008B778093E80057C0D6
:103C9000C096E7CF6091860270918702AE014F5FB8
:103CA0005F4F0E94D519BC01892B09F448C090913F
:103CB000E800977F9093E80089819A810E94F31A27
:103CC000E1CF8038E1F58091E800877F8093E800BC
:103CD00080917D028093F10045CF811130C0909199
:103CE0008402923060F58091E800877F8093E8003D
:103CF00090937D020E94861B80917D02882311F0A3
:103D000084E005C08091E30087FDFACF81E08093D5
:103D100081020E94BF1813C080918402813079F41F
:103D200081E0933009F080E080937F021092E900F7
:103D30008091E800877F8093E8000E94861B809135
:103D4000E80083FF0AC08091E800877F8093E80045
:103D50008091EB0080628093EB00AA96E3E00C94E4
:103D6000121F0895CF93809181028823A1F0C09102
:103D7000E900CF709091EC00892F817090FD80E870
:103D8000C82B1092E9008091E80083FD0E946A1D13
:103D9000CF70C093E900CF91089597FB072E16F4DA
:103DA000009407D077FD09D00E941E1F07FC05D0A4
:103DB0003EF4909581959F4F0895709561957F4F42
:103DC0000895EE0FFF1F0590F491E02D09942F92B6
:103DD0003F924F925F926F927F928F929F92AF929B
:103DE000BF92CF92DF92EF92FF920F931F93CF93E8
:103DF000DF93CDB7DEB7CA1BDB0B0FB6F894DEBF7F
:103E00000FBECDBF09942A88398848885F846E84A4
:103E10007D848C849B84AA84B984C884DF80EE80EE
:103E2000FD800C811B81AA81B981CE0FD11D0FB6F7
:103E3000F894DEBF0FBECDBFED010895AA1BBB1BDA
:103E400051E107C0AA1FBB1FA617B70710F0A61B9A
:103E5000B70B881F991F5A95A9F780959095BC01BB
:103E6000CD010895FB01DC0104C08D910190801902
:103E700021F441505040C8F7881B990B0895FB016D
:103E8000DC0102C001900D9241505040D8F70895D6
:103E9000F999FECF92BD81BDF89A992780B5089512
:103EA000A8E1B0E042E050E00C947C1F262FF99985
:103EB000FECF92BD81BDF89A019700B4021639F089
:103EC0001FBA20BD0FB6F894FA9AF99A0FBE08955A
:103ED0000396272F0E94571F0E94561F252F0E94CE
:103EE000571F242F0C94571F0196272F0E94571FEE
:103EF0000C94561FDC01CB01FC01F999FECF06C0E2
:103F0000F2BDE1BDF89A319600B40D924150504097
:103F1000B8F70895F894FFCFA304A304D404D404FD
:103F200066058205030503058705F80507060706EC
:103F3000C2133614CA1394139813CE139C13D213BE
:103F4000DE13A8132F14AC13E213B013E6130E14F0
:103F5000B413EA131514BA13F013F813A013D613FD
:103F6000A413DA13BE13F41304141E142D148E13A9
:103F7000C6133D14B615BC15A515B015C215C81548
:103F8000CE158E1DB61D9F1EB61D9F1EE91D0A1E55
:063F90009F1E611E6D1E64
:103F9600FA01280850011E0A14013E1873186C18FD
:103FA600651801E200E900EA00B500B600B700CDE9
:103FB600008301CC008A019201940121022302248C
:103FC600022502260227022A02B300B4006F0070FF
:103FD600009F01CB01818283E200E900EA00B5007F
:103FE600B600B700CD008301CC008A01920194018E
:103FF6002102230224022502260227022A02B300F6
:10400600B4006F0070009F01CB01818283F5F6F743
:0840160094F436353334320016
:00000001FF
